:100000000A128A11F92F00308A000408840A820734
:100010000034543465347334743465346F342E349E
:080020002E342E342E3400347E
:100BB800F2007208F300FF2D0A128A110C260A129D
:100BC8008A11003A031DE92DEA2DE02D8312031343
:100BD8008814F001F00A730884000A128A110320AD
:100BE8000A128A110A128A11B0260A128A110130D1
:100BF800FF007F08F307730884000A128A11032094
:100C08000A128A11003A031D0A2E0B2EE02D080045
:100C180064307702031C112E122E162EF701F70AE4
:100C28000030482E8312031308158810F030FF0097
:100C38007F08831603138804831203138815242E50
:100C4800252E0000F61383120313881F2C2EF61787
:100C58008312031388118815312E322E0000831257
:100C6800031388110F30FF007F08831603138805CC
:100C7800831203130811F61F422E432E122E013041
:100C8800FF007F08F707013008000A128A111A27A7
:100C98000A128A110A128A110C260A128A11003ABB
:100CA800031D572E582E4E2E831203138810F00161
:100CB800F00A80300A128A11B0260A128A1101300D
:100CC8000A128A11DC250A128A110A128A110C26C4
:100CD8000A128A11003A031D722E732E692E83128E
:100CE80003138810F001F00AC0300A128A11B026E6
:100CF8000A128A11F5140A128A110C260A128A118C
:100D0800003A031D882E892E7F2E83120313881024
:100D1800F001F00A750808380A128A11B0260A127A
:100D28008A1175140A128A110C260A128A11003ABD
:100D3800031D9F2EA02E962E831203138810F001F8
:100D4800F00A750808380A128A11B0260A128A11A0
:100D5800AC2E0A128A110028F1007108F6008312DD
:100D680003130811F61BB92EBD2E8312031388171F
:100D7800C02E831203138813761BC32EC72E83122B
:100D880003130817CA2E831203130813F61ACD2E5D
:100D9800D12E831203138816D42E831203138812BC
:100DA800761AD72EDB2E831203130816DE2E831233
:100DB800031308128815E02EE12E00008312031396
:100DC800881170080319E92EEA2E192FF619ED2E4D
:100DD800F12E831203138817F42E8312031388133A
:100DE8007619F72EFB2E831203130817FE2E831293
:100DF80003130813F618012F052F831203138816FF
:100E0800082F83120313881276180B2F0F2F8312C3
:100E180003130816122F8312031308128815142FB0
:100E2800152F00008312031388110800831603137B
:100E380008118312031308118316031388108312F1
:100E48000313881083160313881183120313881160
:100E58000F30FF007F08831603138805F701F70A90
:100E68006230F3006530F200F20B382FF30B382FA5
:100E78003D2F831203138810F00130300A128A11B3
:100E8800B0260A128A112130F3007630F200F20BF4
:100E98004B2FF30B4B2F0000831203138810F00124
:100EA80030300A128A11B0260A128A112130F30052
:100EB8007630F200F20B5E2FF30B5E2F00008312E8
:100EC80003138810F00130300A128A11B0260A1272
:100ED8008A112130F3007630F200F20B712FF30BF8
:100EE800712F0000831203138810F00120300A12BA
:100EF8008A11B0260A128A110A128A110C260A12BD
:100F08008A11003A031D892F8A2F802F0A128A110D
:100F18000C260A128A11003A031D932F942F8A2F48
:100F2800831203138810F001F00A28300A128A117C
:100F3800B0260A128A110430F5000A128A110C260A
:100F48000A128A11003A031DAA2FAB2FA12F831270
:100F580003138810F001F00A750808380A128A117C
:100F6800B0260A128A110230F4000A128A110C26DD
:100F78000A128A11003A031DC22FC32FB92F8312F8
:100F880003138810F001F00A06300A128A11B026FD
:100F98000A128A110A128A110C260A128A11003AB8
:100FA800031DD72FD82FCE2F831203138810F001DB
:100FB800F00A01300A128A11B0260A128A110A129E
:100FC8008A110C260A128A11003A031DEC2FED2F04
:100FD800E32F831203138810F001F00A02300A127B
:100FE8008A11B0260A128A110800F401F501F601E7
:080FF80083010A128A11492E3F
:02400E007A3FF7
:00000001FF
